{
  "contractName": "TradeContract",
  "abi": [
    {
      "inputs": [],
      "payable": false,
      "stateMutability": "nonpayable",
      "type": "constructor"
    },
    {
      "anonymous": false,
      "inputs": [
        {
          "indexed": false,
          "name": "_tradeId",
          "type": "bytes32"
        },
        {
          "indexed": false,
          "name": "_sender",
          "type": "address"
        },
        {
          "indexed": false,
          "name": "_recipient",
          "type": "address"
        },
        {
          "indexed": false,
          "name": "_amount",
          "type": "uint256"
        },
        {
          "indexed": false,
          "name": "_tradeDate",
          "type": "uint256"
        },
        {
          "indexed": false,
          "name": "_tradeStatus",
          "type": "uint256"
        }
      ],
      "name": "tradeEvent",
      "type": "event"
    },
    {
      "constant": false,
      "inputs": [
        {
          "name": "_tradeId",
          "type": "bytes32"
        },
        {
          "name": "_sender",
          "type": "address"
        },
        {
          "name": "_recipient",
          "type": "address"
        },
        {
          "name": "_amount",
          "type": "uint256"
        },
        {
          "name": "_tradeDate",
          "type": "uint256"
        }
      ],
      "name": "addTrade",
      "outputs": [],
      "payable": false,
      "stateMutability": "nonpayable",
      "type": "function"
    },
    {
      "constant": true,
      "inputs": [
        {
          "name": "_tradeId",
          "type": "bytes32"
        }
      ],
      "name": "getTrade",
      "outputs": [
        {
          "name": "",
          "type": "address"
        },
        {
          "name": "",
          "type": "address"
        },
        {
          "name": "",
          "type": "uint256"
        },
        {
          "name": "",
          "type": "uint256"
        },
        {
          "name": "",
          "type": "uint256"
        }
      ],
      "payable": false,
      "stateMutability": "view",
      "type": "function"
    }
  ],
  "bytecode": "0x608060405234801561001057600080fd5b5060008060006101000a81548160ff0219169083600281111561002f57fe5b0217905550610518806100436000396000f30060806040526004361061004c576000357c0100000000000000000000000000000000000000000000000000000000900463ffffffff1680632bb9038614610051578063a3b13799146100d6575b600080fd5b34801561005d57600080fd5b506100d46004803603810190808035600019169060200190929190803573ffffffffffffffffffffffffffffffffffffffff169060200190929190803573ffffffffffffffffffffffffffffffffffffffff169060200190929190803590602001909291908035906020019092919050505061018f565b005b3480156100e257600080fd5b5061010560048036038101908080356000191690602001909291905050506103de565b604051808673ffffffffffffffffffffffffffffffffffffffff1673ffffffffffffffffffffffffffffffffffffffff1681526020018573ffffffffffffffffffffffffffffffffffffffff1673ffffffffffffffffffffffffffffffffffffffff1681526020018481526020018381526020018281526020019550505050505060405180910390f35b60c060405190810160405280866000191681526020018573ffffffffffffffffffffffffffffffffffffffff1681526020018473ffffffffffffffffffffffffffffffffffffffff1681526020018381526020018281526020016000809054906101000a900460ff16600281111561020357fe5b8152506001600087600019166000191681526020019081526020016000206000820151816000019060001916905560208201518160010160006101000a81548173ffffffffffffffffffffffffffffffffffffffff021916908373ffffffffffffffffffffffffffffffffffffffff16021790555060408201518160020160006101000a81548173ffffffffffffffffffffffffffffffffffffffff021916908373ffffffffffffffffffffffffffffffffffffffff160217905550606082015181600301556080820151816004015560a08201518160050160006101000a81548160ff021916908360028111156102f757fe5b02179055509050507fda13afd4a262c21ce9205a6263a4c55113a5e9de80ed29d13ce85c0c93893eca85858585856000809054906101000a900460ff16600281111561033f57fe5b6040518087600019166000191681526020018673ffffffffffffffffffffffffffffffffffffffff1673ffffffffffffffffffffffffffffffffffffffff1681526020018573ffffffffffffffffffffffffffffffffffffffff1673ffffffffffffffffffffffffffffffffffffffff168152602001848152602001838152602001828152602001965050505050505060405180910390a15050505050565b600080600080600060016000876000191660001916815260200190815260200160002060010160009054906101000a900473ffffffffffffffffffffffffffffffffffffffff1660016000886000191660001916815260200190815260200160002060020160009054906101000a900473ffffffffffffffffffffffffffffffffffffffff1660016000896000191660001916815260200190815260200160002060030154600160008a6000191660001916815260200190815260200160002060040154600160008b6000191660001916815260200190815260200160002060050160009054906101000a900460ff1660028111156104d957fe5b94509450945094509450919395909294505600a165627a7a7230582003ab220ac5fc0a351ba5b849f5a13140cd4ed68ac54cb1036562212e01ee30bd0029",
  "source": "pragma solidity >=0.4.21 <0.7.0;\n\ncontract TradeContract {\n\n    /**\n    Trade Status Enum to represent various Trade Status\n    */\n    enum TradeStatus { SUBMITTED, INPROCESS, SETTLED }\n\n    TradeStatus defaultStatus;\n\n    /**\n    Constructor sets Default Trade status value to Submitted\n    */\n    constructor() public{\n        defaultStatus = TradeStatus.SUBMITTED;\n    }\n\n    /**\n    struct to represent a Trade.\n    tradeId     : id to uniquely identify a trade\n    sender      : Bank Address whom creates the Trade\n    recipient   : Bank Address whom recieve the Trade\n    amount      : Trade amount.\n    tradeDate   : DateTime of Trade Submitted.\n    TradeStatus : Trade Status represents current trade status.\n     */\n    struct Trade {\n        bytes32 tradeId;\n        address sender;\n        address recipient;\n        uint256 amount;\n        uint256 tradeDate;\n        TradeStatus tradeStatus;\n    }\n\n    /**\n    Evant tradeEvent to get triggered every time new trade get submitted.\n    tradeId     : id to uniquely identify a trade\n    sender      : Bank Address whom creates the Trade\n    recipient   : Bank Address whom recieve the Trade\n    amount      : Trade amount.\n    tradeDate   : DateTime of Trade Submitted.\n    TradeStatus : Trade Status represents current trade status.\n     */\n    event tradeEvent (\n        bytes32 _tradeId,\n        address _sender,\n        address _recipient,\n        uint256 _amount,\n        uint256 _tradeDate,\n        uint _tradeStatus\n    );\n\n    /**\n    Trade Data mapping to store the trade parameters after submitted.\n    key: TradeID,\n    value: Trade Struct\n    */\n\tmapping (bytes32 => Trade) tradeData;\n\n\n    /**\n    function: addTrade to accept variouse trade parameters and stores into trade mapping,\n    emits tradeEvent.\n    @param _tradeId     : id to uniquely identify a trade\n    @param _sender      : Bank Address whom creates the Trade\n    @param _recipient   : Bank Address whom recieve the Trade\n    @param _amount      : Trade amount.\n    @param _tradeDate   : DateTime of Trade Submitted.\n    */\n    function  addTrade(\n    bytes32 _tradeId,\n    address _sender,\n    address _recipient,\n    uint _amount,\n    uint _tradeDate\n    ) external {\n        tradeData[_tradeId] = Trade(\n            _tradeId,\n            _sender,\n            _recipient,\n            _amount,\n            _tradeDate,\n            defaultStatus);\n\n        emit tradeEvent(\n            _tradeId,\n            _sender,\n            _recipient,\n            _amount,\n            _tradeDate,\n            uint(defaultStatus));\n    }\n\n    /**\n    function: addTrade to accept variouse trade parameters and stores into trade mapping,\n    emits tradeEvent.\n    @param _tradeId     : id to uniquely identify a trade\n    @return address     : Bank Address whom creates the Trade\n    @return address     : Bank Address whom recieve the Trade\n    @return uint        : Trade amount.\n    @return uint        : trade DateTime in uint.\n    @return uint        : Trade Status in uint.\n    */\n    function getTrade(bytes32 _tradeId) public view returns (address, address, uint, uint, uint)\n    {\n        return (\n        tradeData[_tradeId].sender,\n        tradeData[_tradeId].recipient,\n        tradeData[_tradeId].amount,\n        tradeData[_tradeId].tradeDate,\n        uint(tradeData[_tradeId].tradeStatus)\n        );\n    }\n\n}\n",
  "sourcePath": "/home/nick/l3/trade-dapp/contracts/TradeContract.sol",
  "compiler": {
    "name": "solc",
    "version": "0.4.26+commit.4563c3fc.Emscripten.clang"
  },
  "schemaVersion": "2.0.3",
  "updatedAt": "2020-05-29T08:27:47.691Z"
}